:1000000012C021C021C01FC01EC01DC01CC01BC00B
:100010001AC019C018C04DC228C215C014C013C0E0
:1000200012C011C010C011241FBECFE5D4E0DEBF46
:10003000CDBF12E0A0E6B0E001C01D92AC36B10722
:10004000E1F769D062C2DCCF1F920F920FB60F9218
:100050001124EF92FF920F931F932F933F934F938F
:100060005F936F937F938F939F93AF93BF93EF9320
:10007000FF93DF93CF930F92CDB7DEB7EDB6FEB609
:1000800068D087E06EE77FD08FEF898380E69E019E
:100090002F5F3F4FB90141E085D04981413230F0B7
:1000A00082EEEED087E06EE76ED018C0842F90E02D
:1000B00001962DB73EB7281B390B0FB6F8943EBFFB
:1000C0000FBE2DBF0DB71EB70F5F1F4F81E6B801E2
:1000D000980168D040D0C8016981B2D10FB6F894B8
:1000E000FEBE0FBEEDBE0F90CF91DF91FF91EF915D
:1000F000BF91AF919F918F917F916F915F914F9140
:100100003F912F911F910F91FF90EF900F900FBE95
:100110000F901F901895109265021092640268ED7E
:1001200078EB85E090E040E02FD181E060E040E0B6
:1001300020E000D140916602509167026091680210
:100140007091690280916A0290916B02A0D07894BC
:10015000FFCFA8980895A89A0895C2980895C29AC2
:100160000895FF920F931F938B01C2988F71F1D066
:10017000F82E8FEFEED0F8018083C29A8F2D1F9159
:100180000F91FF9008950F931F93162FC2988F71B0
:100190008062DFD0082F812FDCD0C29A802F1F9180
:1001A0000F910895CF92DF92EF92FF920F931F93DA
:1001B0008B01D42E7901C298CCD0C82EC8016D2DE8
:1001C000A701CCD0C29A8C2D1F910F91FF90EF9078
:1001D000DF90CF9008958F71806220E030E0E2DF01
:1001E00008958F929F92AF92BF92CF92DF92EF923B
:1001F000FF920F931F93DF93CF93CDB7DEB7ADB6CA
:10020000BEB600D000D00F922DB73EB72F5F3F4F44
:1002100049017C018901CDB6DEB68CEF9FEFC80E97
:10022000D91EF70181917F01F80184838AE0B4012E
:1002300045E0D1DF015010400C151D0591F70FB6B8
:10024000F894BEBE0FBEADBECF91DF911F910F914E
:10025000FF90EF90DF90CF90BF90AF909F908F90E6
:1002600008950F931F93A898FC0161918F016F77F8
:1002700085E089DFC801B5DFA89A1F910F91089525
:1002800060E070E040E020E030E08CDF08950F9304
:100290001F93DF93CF9300D000D000D0CDB7DEB74F
:1002A0008EE1898386EE8A838B838C838D8381ECB8
:1002B0008E83A998A198939A8B98A898A09A80E881
:1002C0008BBFA89880E06CE05EDF80E06FE35BDFCF
:1002D00081EED6DF82EED4DF87E060E754DF86E090
:1002E0006EE051DF81E061E04EDF82E061E04BDFF4
:1002F0008CE161E048DF8DE166E045DF83E063E0AB
:1003000042DF84E06FEF3FDF08E610E1C8010197AC
:10031000F1F7CE010196A5DFC8010197F1F7269606
:100320000FB6F894DEBF0FBECDBFCF91DF911F9106
:100330000F910895BC9897B39C6297BB982F9695A0
:10034000692B6061642B622B6DB981708EB96E9AD6
:1003500008958FB9779BFECF8FB10895DC0120E01F
:1003600030E00FC08C918FB9779BFECF8FB14115D4
:10037000510521F0FA01E20FF31F80832F5F3F4FF9
:100380001196261778F308950F931F938B019C0104
:100390001092650210926402109260021092610243
:1003A000109262021092630286E880BD442319F025
:1003B000413009F502C0599801C0599A44E0000F34
:1003C000111F221F331F4A95D1F760E07BE187EBB5
:1003D00090E0A901980177D0C901DA010197A1093C
:1003E000B109292F3A2F4B2F55270196A11DB11D79
:1003F00020BD815089B988E18AB91F910F91089574
:10040000282F909160029F5F809161029817E1F31D
:10041000F89490936002E0916002F0E0E05AFF4FA0
:1004200020837894559A0895CF93DF93EC0102C00E
:100430002196E6DF88818823D9F7DF91CF9108954F
:100440000F931F93CF93DF93182F062F282F392F49
:10045000E90102C08991D4DF9E01211B2017D0F34E
:10046000DF91CF911F910F9108951F920F920FB6B8
:100470000F9211248F939F93EF93FF9390916002BB
:1004800080916102981759F0E0916102EF5FE0936B
:100490006102F0E0E05AFF4F80818CB901C05598AD
:1004A000FF91EF919F918F910F900FBE0F901F9032
:1004B00018951F920F920FB60F9211240F900FBE36
:1004C0000F901F901895A1E21A2EAA1BBB1BFD01CD
:1004D0000DC0AA1FBB1FEE1FFF1FA217B307E40723
:1004E000F50720F0A21BB30BE40BF50B661F771F7B
:1004F000881F991F1A9469F760957095809590955B
:0E0500009B01AC01BD01CF010895F894FFCF1F
:00000001FF
