:1000000012C02CC04EC02AC029C028C027C026C09C
:1000100025C024C023C078C53AC520C01FC01EC05B
:100020001DC01CC01BC011241FBECFE5D4E0DEBF25
:10003000CDBF12E0AEE6B0E001C01D92A838B10716
:10004000E1F710E0A0E6B0E0E8E8F8E102C00590D2
:100050000D92AE36B107D9F702D014CCD1CFDF93D1
:10006000CF93CDB7DEB710927D0210927C0260E094
:1000700076E980E090E040E093D381E060E040E00A
:1000800020E007D340917E0250917F026091800270
:1000900070918102809182029091830277D078944E
:1000A000FFCF1F920F920FB60F9211242F933F9301
:1000B0004F935F936F937F938F939F93AF93BF9370
:1000C000EF93FF93DF93CF9300D00F92CDB7DEB7BE
:1000D00033D28FEF8B839E012D5F3F4FFE0133960E
:1000E00080E6B90141E09F01BAD18B81813230F0C5
:1000F00082EEDBD187E06EE79AD132C08B81882F08
:1001000090E00196BADA9A83898389819A8100976F
:1001100051F482EECAD187E06EE789D1E0917C028A
:10012000F0917D0209959B8129813A81E981FA81CB
:1001300081E6B901492F9F0192D10CD287E06EE789
:1001400076D18B81282F30E089819A81FC01E20FE2
:10015000F31F108289819A815AD489819A813ADB6E
:100160000F900F900F90CF91DF91FF91EF91BF9182
:10017000AF919F918F917F916F915F914F913F913F
:100180002F910F900FBE0F901F901895DF93CF9374
:10019000CDB7DEB7A2970FB6F894DEBF0FBECDBFC6
:1001A0004D8F5E8F6F8F78A389A39AA382E38D8F83
:1001B00087EE8E8F87EE8F8F87EE88A387EE89A3D9
:1001C00081EC8AA3A5E3B0E0E5E3F0E080818D7FD8
:1001D0008C93A4E3B0E0E4E3F0E080818D7F8C9326
:1001E000A2E3B0E0E2E3F0E0808188608C93A1E3D9
:1001F000B0E0E1E3F0E08081877F8C93A5E3B0E09D
:10020000E5E3F0E080818E7F8C93A4E3B0E0E4E34B
:10021000F0E0808181608C93EBE5F0E080E8808302
:100220008BD180E06CE003D180E06FE300D181EE00
:100230003CD182EE3AD187E060E7F9D086E066E211
:10024000F6D081E061E0F3D082E061E0F0D08CE1B3
:1002500061E0EDD08DE166E0EAD083E063E0E7D0D5
:1002600084E06FEFE4D083E393E3A3EBBFE3898FF4
:100270009A8FAB8FBC8F698D7A8D8B8D9C8D20E092
:1002800030E84BE355E433D6DC01CB018D8B9E8BFC
:10029000AF8BB88F6D897E898F89988D20E030E093
:1002A00040E85FE36FD788232CF481E090E09C8BDB
:1002B0008B8B3BC06D897E898F89988D20E03FEFC5
:1002C0004FE757E409D718163CF5698D7A8D8B8D69
:1002D0009C8D20E030E040E251E409D6DC01CB0106
:1002E000BC01CD0140D4DC01CB019C8B8B8B0FC0BA
:1002F0008CE291E09A8B898B89899A890197F1F731
:100300009A8B898B8B899C8901979C8B8B8B8B8992
:100310009C89009769F713C06D897E898F89988DB4
:1003200022D4DC01CB019C8B8B8B8B899C89988B95
:100330008F878F8598890197F1F7988B8F87CE01EA
:100340004D96C4D083E393E3A3EBBFE38B879C87F5
:10035000AD87BE876B857C858D859E8520E030E8E6
:100360004BE355E4C4D5DC01CB018F839887A98783
:10037000BA876F81788589859A8520E030E040E8EA
:100380005FE300D788232CF481E090E09E838D8387
:100390003BC06F81788589859A8520E03FEF4FE7E4
:1003A00057E49AD618163CF56B857C858D859E851D
:1003B00020E030E040E251E49AD5DC01CB01BC0101
:1003C000CD01D1D3DC01CB019E838D830FC08CE2A4
:1003D00091E09C838B838B819C810197F1F79C83B7
:1003E0008B838D819E8101979E838D838D819E81DC
:1003F000009769F713C06F81788589859A85B3D393
:10040000DC01CB019E838D838D819E819A838983BC
:1004100089819A810197F1F79A838983A2960FB611
:10042000F894DEBF0FBECDBFCF91DF910895DF936B
:10043000CF9300D00F92CDB7DEB78A836B8398D06D
:100440008A818F7180625CD189838B8159D19ED0E2
:1004500089810F900F900F90CF91DF910895DF93D6
:10046000CF93CDB7DEB727970FB6F894DEBF0FBE98
:10047000CDBF8A837C836B834D833F832E8378D06B
:100480008A813ED189838B819C812E813F816D81C0
:10049000A9014CD17BD0898127960FB6F894DEBF95
:1004A0000FBECDBFCF91DF910895DF93CF930F9211
:1004B000CDB7DEB78983898160E070E040E020E05D
:1004C00030E0CDDF0F90CF91DF910895DF93CF9390
:1004D00000D0CDB7DEB79A8389832ED0E981FA8127
:1004E0008081982F9F7785E0692FA1DF89819A818C
:1004F000019675D02FD00F900F90CF91DF91089576
:10050000DF93CF9300D000D0CDB7DEB78A837C8352
:100510006B832ED08A818F71F3D089838FEFF0D0D7
:10052000EB81FC81808332D089810F900F900F90F6
:100530000F90CF91DF910895DF93CF93CDB7DEB7C2
:10054000A5E3B0E0E5E3F0E080818E7F8C93CF916E
:10055000DF910895DF93CF93CDB7DEB7A5E3B0E089
:10056000E5E3F0E0808181608C93CF91DF91089585
:10057000DF93CF93CDB7DEB7A8E3B0E0E8E3F0E0D8
:1005800080818B7F8C93CF91DF910895DF93CF9300
:10059000CDB7DEB7A8E3B0E0E8E3F0E080818460A7
:1005A0008C93CF91DF910895DF93CF9300D000D04B
:1005B000CDB7DEB789837B836A834C8389818F7152
:1005C00080622A813B81B9014C8120E030E047DF25
:1005D0000F900F900F900F90CF91DF910895DF93C0
:1005E000CF93CDB7DEB729970FB6F894DEBF0FBE15
:1005F000CDBF9D838C838DB79EB79987888700D0A8
:1006000000D00F928DB79EB701969F838E838E8107
:100610009F8100969F838E838E819F819B838A8397
:1006200085E0898323C08981882F90E09C01215037
:1006300030408A819B81DC01A20FB31F8981282F62
:1006400030E085E090E0821B930B9C018C819D81C2
:10065000FC01E20FF31F80818C932A813B818AE0A9
:10066000B90145E0A1DF898181508983898188238F
:10067000D1F6888599850FB6F8949EBF0FBE8DBFC1
:1006800029960FB6F894DEBF0FBECDBFCF91DF9194
:100690000895DF93CF9300D000D0CDB7DEB7898324
:1006A0006A834B832C83A7E3B0E0E7E3F0E080812B
:1006B0008F7E8C93A7E3B0E0E7E3F0E080818C626B
:1006C0008C93EDE2F0E09A818B81982B8C81982BB2
:1006D00089818695892B80618083EEE2F0E08981B3
:1006E00081708083ADE2B0E0EDE2F0E08081806473
:1006F0008C930F900F900F900F90CF91DF910895F2
:10070000DF93CF930F92CDB7DEB78983EFE2F0E0AE
:1007100089818083EEE2F0E080818823DCF7EFE2DC
:10072000F0E080810F90CF91DF910895DF93CF9318
:10073000CDB7DEB727970FB6F894DEBF0FBECDBF9B
:100740009C838B836D835F834E831A821CC08A8156
:10075000282F30E08B819C81FC01E20FF31F808108
:10076000CFDF89838E819F81009751F08A81282F66
:1007700030E08E819F81FC01E20FF31F898180832D
:100780008A818F5F8A839A818D81981700F32796DB
:100790000FB6F894DEBF0FBECDBFCF91DF910895A5
:1007A0000F931F93DF93CF93CDB7DEB727970FB685
:1007B000F894DEBF0FBECDBF69837A838B839C83A1
:1007C0004D83109278021092790210927A02109260
:1007D0007B02E0E4F0E086E880838D81282F30E022
:1007E0003F832E838E819F81009739F0EE81FF81B8
:1007F000E130F10509F457C0ABC0ABE2B0E0EBE289
:10080000F0E080818D7F8C9300E410E089819A81F3
:10081000AB81BC81880F991FAA1FBB1F880F991F2E
:10082000AA1FBB1F880F991FAA1FBB1F880F991FE4
:10083000AA1FBB1F9C01AD0180E09BE1A7EBB0E0CC
:10084000BC01CD01C1D6DA01C9010197A109B109E5
:10085000892F9A2FAB2FBB27F801808309E210E084
:1008600089819A81AB81BC81880F991FAA1FBB1F08
:10087000880F991FAA1FBB1F880F991FAA1FBB1F94
:10088000880F991FAA1FBB1F9C01AD0180E09BE14F
:10089000A7EBB0E0BC01CD0197D6DA01C9018150C8
:1008A000F801808355C0ABE2B0E0EBE2F0E080817C
:1008B00082608C9300E410E089819A81AB81BC81D5
:1008C000880F991FAA1FBB1F880F991FAA1FBB1F44
:1008D000880F991FAA1FBB1F880F991FAA1FBB1F34
:1008E0009C01AD0180E09BE1A7EBB0E0BC01CD0134
:1008F0006BD6DA01C9010197A109B109892F9A2F95
:10090000AB2FBB27F801808309E210E089819A812F
:10091000AB81BC81880F991FAA1FBB1F880F991F2D
:10092000AA1FBB1F880F991FAA1FBB1F880F991FE3
:10093000AA1FBB1F9C01AD0180E09BE1A7EBB0E0CB
:10094000BC01CD0141D6DA01C9018150F801808393
:10095000EAE2F0E088E9808327960FB6F894DEBFDC
:100960000FBECDBFCF91DF911F910F910895DF93FF
:10097000CF9300D0CDB7DEB78A83809178028F5FA6
:1009800089839091790289818917D9F3F8948981B3
:100990008093780280917802882F90E0FC01E259E0
:1009A000FF4F8A8180837894AAE2B0E0EAE2F0E027
:1009B000808180628C930F900F90CF91DF9108958A
:1009C000DF93CF9300D000D000D0CDB7DEB79D83AA
:1009D0008C8302C08E81CBDF8C819D819B838A8337
:1009E0008C819D8101969D838C83EA81FB8184911A
:1009F000898389818E838E81882361F726960FB63D
:100A0000F894DEBF0FBECDBFCF91DF910895DF9385
:100A1000CF9300D0CDB7DEB79A8389830AC0E9812E
:100A2000FA81208189819A8101969A838983822F14
:100A30009EDFE981FA818081882389F70F900F90EA
:100A4000CF91DF910895DF93CF9300D0CDB7DEB77C
:100A500090917A0280917B02981711F41A8211C04A
:100A600080917B028F5F89708983898180937B026B
:100A700080917B02882F90E0FC01E259FD4F80813C
:100A80008A838A810F900F90CF91DF9108951F92F2
:100A90000F920FB60F9211248F939F93AF93BF9332
:100AA000EF93FF93DF93CF930F92CDB7DEB7909183
:100AB000780280917902981791F0809179028F5F86
:100AC0008983898180937902ACE2B0E08981882FA3
:100AD00090E0FC01E259FF4F80818C9307C0AAE2AD
:100AE000B0E0EAE2F0E080818F7D8C930F90CF91AF
:100AF000DF91FF91EF91BF91AF919F918F910F90F7
:100B00000FBE0F901F9018951F920F920FB60F9265
:100B100011248F939F93EF93FF93DF93CF9300D094
:100B2000CDB7DEB7ECE2F0E08081898380917A0274
:100B30008F5F89708A838A8180937A028A81882F65
:100B400090E0FC01E259FD4F898180830F900F9066
:100B5000CF91DF91FF91EF919F918F910F900FBEF9
:100B60000F901F901895EF92FF920F931F937B01A8
:100B70008C0120E030E040E05FE4D9D288237CF0B3
:100B8000C801B70120E030E040E05FE45ED125D34A
:100B90009B01AC01205030404040504805C0C80186
:100BA000B7011BD39B01AC01B901CA011F910F9181
:100BB000FF90EF900895A0E0B0E0E0EEF5E026C5EC
:100BC000DC012B01FA019C91923008F439C1EB0150
:100BD0008881823008F433C1943069F4843009F09C
:100BE0002FC111969C9111978981981709F428C1FA
:100BF000A0E6B0E025C1843009F421C18230A9F417
:100C0000923009F01DC19A01AD0188E0EA01099016
:100C1000AE01E90109929E018150C1F7E20189818B
:100C200011969C918923818308C1923009F407C1F0
:100C300012962D903C901397EB018A819B8114961C
:100C4000AD90BD90CD90DC901797EC80FD800E812B
:100C50001F819101281B390BB90137FF04C066279A
:100C60007727621B730B603271050CF061C012169E
:100C700013066CF537014801062E04C0969487943C
:100C8000779467940A94D2F721E030E040E050E096
:100C900004C0220F331F441F551F6A95D2F72150FD
:100CA0003040404050402E213F2140235123211508
:100CB00031054105510521F021E030E040E050E0F0
:100CC00079018A01E628F728082919293CC0232B35
:100CD000D1F1260E371E35014601062E04C096942A
:100CE0008794779467940A94D2F721E030E040E04B
:100CF00050E004C0220F331F441F551F6A95D2F7DE
:100D000021503040404050402A213B214C215D2160
:100D1000211531054105510521F021E030E040E089
:100D200050E059016A01A628B728C828D9280BC065
:100D3000821593052CF01C01AA24BB24650103C075
:100D4000EE24FF24870111969C91D20111968C917B
:100D5000981709F445C0992339F0A80197012A1979
:100D60003B094C095D0906C0A60195012E193F09F2
:100D7000400B510B57FD08C011823382228224831D
:100D80003583468357831DC081E08183338222826D
:100D900088279927DC01821B930BA40BB50B848356
:100DA0009583A683B7830DC0220F331F441F551FA1
:100DB000248335834683578382819381019793836C
:100DC00082832481358146815781DA01C9010197E7
:100DD000A109B1098F5F9F4FAF4FBF4328F30BC0ED
:100DE000918333822282EA0CFB1C0C1D1D1DE482C0
:100DF000F5820683178383E08083248135814681D1
:100E0000578157FF1AC0C901AA2797FDA095BA2F8D
:100E100081709070A070B070569547953795279562
:100E2000822B932BA42BB52B84839583A683B78326
:100E300082819381019693838283DF0101C0D20175
:100E4000CD01CDB7DEB7E2E1FDC3A0E2B0E0EAE25A
:100E5000F7E0E8C369837A838B839C832D833E8389
:100E60004F835887E9E0EE2EF12CEC0EFD1ECE01EB
:100E70000196B701D8D28E010F5E1F4FCE010596A5
:100E8000B801D1D28A8991E089278A8BC701B8013C
:100E9000AE01475E5F4F8FDEF1D1A096E6E0DEC384
:100EA000A0E2B0E0E5E5F7E0BDC369837A838B8318
:100EB0009C832D833E834F835887F9E0EF2EF12CDE
:100EC000EC0EFD1ECE010196B701ADD28E010F5E74
:100ED0001F4FCE010596B801A6D2C701B801AE01D9
:100EE000475E5F4F68DECAD1A096E6E0B7C3A0E2D6
:100EF000B0E0ECE7F7E08AC369837A838B839C8355
:100F00002D833E834F835887CE010196BE01675FD4
:100F10007F4F89D2CE010596BE016F5E7F4F83D28F
:100F20009985923088F089898230C8F0943019F41C
:100F3000823051F404C0843029F4923081F480E688
:100F400090E0C6C0923049F420E09A858A899813CF
:100F500021E02A87CE010996BBC0823049F420E007
:100F60009A858A89981321E02A8BCE014196B0C0D8
:100F70002D843E844F8458886D887E888F88988C15
:100F8000EE24FF248701AA24BB24650140E050E041
:100F900060E070E0E0E0F0E0C10181709070892BCA
:100FA000E9F0E60CF71C081D191D9A01AB012A0D8A
:100FB0003B1D4C1D5D1D80E090E0A0E0B0E0E6141C
:100FC000F7040805190520F481E090E0A0E0B0E006
:100FD000BA01A901480F591F6A1F7B1FAA0CBB1C2D
:100FE000CC1CDD1C97FE08C081E090E0A0E0B0E0E2
:100FF000A82AB92ACA2ADB2A3196E032F10549F03B
:10100000660C771C881C991C569447943794279437
:10101000C3CFFA85EA892B893C898B859C85280F6B
:10102000391F2E5F3F4F17C0CA0181709070892B06
:1010300061F016950795F794E79480E090E0A0E0C2
:10104000B0E8E82AF92A0A2B1B2B76956795579565
:1010500047952F5F3F4F77FDE7CF0CC0440F551FDB
:10106000661F771F17FD4160EE0CFF1C001F111F4C
:1010700021503040403090E0590790E0690790E4FB
:10108000790760F32B8F3C8FDB01CA018F7790705B
:10109000A070B07080349105A105B10561F447FDE1
:1010A0000AC0E114F1040105110529F0405C5F4F0D
:1010B0006F4F7F4F40781A8EFE1711F081E08A8FB4
:1010C0004D8F5E8F6F8F78A383E0898FCE01499615
:1010D000D5D0A096E2E1B6C2A8E1B0E0E1E7F8E041
:1010E000A1C269837A838B839C832D833E834F8344
:1010F000588789E0E82EF12CEC0EFD1ECE010196FA
:10110000B70191D18E010F5E1F4FCE010596B80138
:101110008AD18985823038F08989823020F0C701F0
:10112000B801F9D101C08FEF6896E6E097C2A8E157
:10113000B0E0ECE9F8E076C269837A838B839C8324
:101140002D833E834F83588789E0E82EF12CEC0EE7
:10115000FD1ECE010196B70166D18E010F5E1F4FB5
:10116000CE010596B8015FD18985823038F0898932
:10117000823020F0C701B801CED101C08FEF689650
:10118000E6E06CC2A8E1B0E0E7ECF8E04BC26983AE
:101190007A838B839C832D833E834F83588789E09A
:1011A000E82EF12CEC0EFD1ECE010196B7013BD1CD
:1011B0008E010F5E1F4FCE010596B80134D189858F
:1011C000823038F08989823020F0C701B801A3D17C
:1011D00001C081E06896E6E041C2ACE0B0E0E2EF39
:1011E000F8E024C269837A838B839C83CE010196C5
:1011F000BE016B5F7F4F17D18D81823061F18230EC
:1012000050F1843021F48E81882351F12EC02F813A
:10121000388537FD20C06E812F3131051CF06623E3
:10122000F9F023C08EE190E0821B930B29853A856B
:101230004B855C8504C056954795379527958A95CB
:10124000D2F76623B1F050954095309521953F4FE8
:101250004F4F5F4F0EC020E030E040E050E009C04B
:101260002FEF3FEF4FEF5FE704C020E030E040E0BA
:1012700050E8B901CA012C96E2E0F4C1DF92EF9286
:10128000FF920F931F93FC01E480F5800681178184
:10129000D1808081823048F480E090E0A0E1B0E02D
:1012A000E82AF92A0A2B1B2BA5C0843009F49FC019
:1012B000823021F4EE24FF24870105C0E114F104FB
:1012C0000105110519F4E0E0F0E096C06281738138
:1012D0009FEF623879070CF05BC022E83FEF261BD6
:1012E000370B2A3131052CF020E030E040E050E0AF
:1012F0002AC0B801A701022E04C0769567955795BC
:1013000047950A94D2F781E090E0A0E0B0E004C0F5
:10131000880F991FAA1FBB1F2A95D2F70197A10911
:10132000B1098E219F21A023B1230097A105B1050A
:1013300021F081E090E0A0E0B0E09A01AB01282B21
:10134000392B4A2B5B2BDA01C9018F779070A07083
:10135000B07080349105A105B10539F427FF09C0AB
:10136000205C3F4F4F4F5F4F04C0215C3F4F4F4FBA
:101370005F4FE0E0F0E02030A0E03A07A0E04A074D
:10138000A0E45A0710F0E1E0F0E079018A0127C0FB
:101390006038710564F5FB01E158FF4FD801C701C2
:1013A0008F779070A070B07080349105A105B10561
:1013B00039F4E7FE0DC080E490E0A0E0B0E004C0A6
:1013C0008FE390E0A0E0B0E0E80EF91E0A1F1B1FBB
:1013D00017FF05C016950795F794E794319687E0B7
:1013E00016950795F794E7948A95D1F705C0EE24F2
:1013F000FF248701EFEFF0E06E2F67956627679572
:10140000902F9F77D794DD24D7948E2F8695492FE0
:10141000462B582F5D29B701CA011F910F91FF90EC
:10142000EF90DF900895FC01DB0140815181228122
:10143000622F6F7770E0221F2227221F9381892F4E
:10144000880F822B282F30E0991F9927991F11961A
:101450009C93119721153105A9F541155105610599
:10146000710511F482E037C082E89FEF13969C93D8
:101470008E9312979A01AB0167E0220F331F441F2E
:10148000551F6A95D1F783E08C930DC0220F331F4F
:10149000441F551F12968D919C9113970197139697
:1014A0009C938E931297203080E0380780E04807A5
:1014B00080E4580758F314962D933D934D935C9315
:1014C000179708952F3F310579F4411551056105AE
:1014D000710519F484E08C93089564FF03C081E0E2
:1014E0008C9312C01C9210C02F57304013963C931F
:1014F0002E93129783E08C9387E0440F551F661F4D
:10150000771F8A95D1F7706414964D935D936D9310
:101510007C93179708951F93DC01FB019C919230F7
:1015200008F447C08081823008F443C0943051F4FD
:1015300011961C91843099F58181682F70E0611BB0
:1015400071093FC0843021F0923031F48230B9F11A
:101550008181882389F12DC011961C9111978230C9
:10156000F1F081811817D9F412962D913C911397BF
:10157000828193818217930794F028173907BCF072
:1015800014968D919D910D90BC91A02D2481358153
:1015900046815781281739074A075B0718F411233A
:1015A00041F00AC082179307A407B50740F411233E
:1015B00019F061E070E005C06FEF7FEF02C060E0FE
:1015C00070E0CB011F910895A1E21A2EAA1BBB1B4C
:1015D000FD010DC0AA1FBB1FEE1FFF1FA217B307FF
:1015E000E407F50720F0A21BB30BE40BF50B661F15
:1015F000771F881F991F1A9469F7609570958095D9
:1016000090959B01AC01BD01CF0108952F923F92AF
:101610004F925F926F927F928F929F92AF92BF9202
:10162000CF92DF92EF92FF920F931F93CF93DF93AE
:10163000CDB7DEB7CA1BDB0B0FB6F894DEBF0FBE0B
:10164000CDBF09942A88398848885F846E847D8458
:101650008C849B84AA84B984C884DF80EE80FD805A
:101660000C811B81AA81B981CE0FD11D0FB6F894D0
:10167000DEBF0FBECDBFED010895CF93DF93BC0158
:101680008230910510F462E070E0A0918602B09182
:101690008702ED01E0E0F0E040E050E021C0888109
:1016A00099818617970769F48A819B81309719F091
:1016B0009383828304C09093870280938602FE0105
:1016C00034C06817790738F44115510519F08417AB
:1016D000950708F4AC01FE018A819B819C01E90118
:1016E0002097E9F641155105A9F1CA01861B970B10
:1016F000049708F4BA01E0E0F0E02AC08D919C91D3
:10170000119784179507F9F46417750781F41296F9
:101710008D919C911397309719F09383828304C025
:101720009093870280938602FD0132964FC0CA01D2
:10173000861B970BFD01E80FF91F619371930297C8
:101740008D939C9343C0FD01828193819C01D901BB
:101750001097A1F68091840290918502892B41F423
:1017600080916A0090916B0090938502809384022F
:1017700040916C0050916D004115510541F44DB7F9
:101780005EB78091680090916900481B590B2091C9
:1017900084023091850224173507B0F4CA01821BF8
:1017A000930B8617970780F0AB014E5F5F4F84174E
:1017B000950750F0420F531F5093850240938402C7
:1017C000F9016193719302C0E0E0F0E0CF01DF9195
:1017D000CF910895CF93DF93009709F450C0EC01A7
:1017E00022971B821A82A0918602B09187021097DD
:1017F00009F140E050E0AC17BD0708F1BB83AA83B4
:10180000FE0121913191E20FF31FAE17BF0779F46A
:101810008D919C911197280F391F2E5F3F4F39836F
:10182000288312968D919C9113979B838A834115EF
:10183000510571F4D0938702C093860220C012969E
:101840008D919C911397AD01009711F0DC01D3CFDE
:10185000FA01D383C28321913191E20FF31FCE1796
:10186000DF0769F488819981280F391F2E5F3F4F68
:10187000FA01318320838A819B8193838283DF9164
:08188000CF910895F894FFCF09
:0E1888000000000000000000200088020000A8
:00000001FF
